:100000000C942A000C94D1010C94AF010C9447007D
:100010000C9414010C9447000C9447000C94470076
:100020000C9447000C941E010C9447000C9467013B
:100030000C9447000C940A010C9447000C94470060
:100040000C9447000C9447000C9447000C94470014
:100050000C94470011241FBECFE5D4E0DEBFCDBF16
:1000600010E0A0E6B0E0E8E4F6E002C005900D92F2
:10007000AA38B107D9F711E0AAE8B0E001C01D9293
:10008000A332B107E1F70E9449000C9422030C94BB
:1000900000000E945F000E9477008AE990E00E94C1
:1000A000C0000E94AB02FDCF13BE84E083BF83B7C4
:1000B000856083BF80E18CBF81E089BF08958FE0B8
:1000C0008ABB8FEF87BB82E081BB78940E9454008B
:1000D0008AE085BF80EC8BBF089580E485BD85B53F
:1000E000806285BD85B5836085BD13BC089510BC55
:1000F00087E689B91BB888ED8AB986EA80BD08957C
:100100005D9BFECFFC0180818CB980E090E008957A
:10011000FC0120E030E08FEF07C02F5F3F4F97E2F8
:100120002131390708F080835F9BF7CF8CB1808342
:1001300080E090E00895262F30E02F703070211578
:10014000310519F421E030E00EC0813021F48BB389
:10015000862B8BBB06C0823021F48BB3609568235D
:100160006BBB20E030E0C9010895282F30E02F70EC
:1001700030702115310519F09BB398279BBB08956A
:10018000FC0110821182128213820895FC01818188
:1001900090E0DF01A80FB91F14966C931497019695
:1001A0008F73907081838381882319F482818F5F9C
:1001B000828391818081981711F481E0838308956F
:1001C000FC018281882319F420E030E021C0838182
:1001D000882321F081818F7380831382A081CF01D6
:1001E0008A0F911DDC0114968C91DB018C93808128
:1001F00090E0DF01A80FB91F14961C921497019686
:100200008F739070808382818150828321E030E0FF
:10021000C90108951F920F920FB60F9211240F90EB
:100220000FBE0F901F9018951F920F920FB60F924E
:1002300011240F900FBE0F901F9018951F920F92D0
:100240000FB60F9211242F933F934F935F936F93A9
:100250007F938F939F93AF93BF93EF93FF9382E02E
:100260000E94B5000E94A502813001F180919200A8
:100270009091930001969093930080939200209127
:100280009400309195002F5F3F4F3093950020935D
:10029000940020918800309189002817390730F4A4
:1002A00081E00E94A20281E00E94A802FF91EF91EA
:1002B000BF91AF919F918F917F916F915F914F917E
:1002C0003F912F910F900FBE0F901F9018951F9286
:1002D0000F920FB60F9211242F933F934F935F937A
:1002E0006F937F938F939F93AF93BF93EF93FF93FE
:1002F000DF93CF930F92CDB7DEB710929300109299
:10030000920080E00E94A202CE0101960E94880025
:10031000009729F48AE990E069810E94C6005C9BFD
:1003200004C081E064E00E949B005B9B04C081E00C
:1003300068E00E949B000F90CF91DF91FF91EF91B9
:10034000BF91AF919F918F917F916F915F914F91ED
:100350003F912F910F900FBE0F901F9018951F92F5
:100360000F920FB60F9211248F939F9387EE93E015
:100370000197F1F700C0000081E090E090938D00BC
:1003800080938C00839BFECF87EE93E00197F1F77B
:1003900000C000009F918F910F900FBE0F901F9093
:1003A00018951F920F920FB60F9211248F939F935F
:1003B00087EE93E00197F1F700C0000081E090E044
:1003C00090938B0080938A00829BFECF87EE93E010
:1003D0000197F1F700C000009F918F910F900FBE21
:1003E0000F901F90189580E090E00895DF93CF93D1
:1003F0000F92CDB7DEB78983CE0101960E948000AF
:1004000080E090E00F90CF91DF910895EF92FF92FE
:10041000CF93DF93E82EE7017E01F92EE70102C0BA
:100420000E948000CE0129912223D1F780E090E044
:10043000DF91CF91FF90EF900895EF92FF921F937D
:10044000DF93CF930F92CDB7DEB77E010894E11C06
:10045000F11C03C08981883541F08AE990E0B70139
:100460000E94E0000097B1F740C07E010894E11CB3
:10047000F11C8AE990E0B7010E94E0000097C9F7FB
:1004800019817E010894E11CF11C8AE990E0B70112
:100490000E94E0000097C9F7E980113419F0123486
:1004A00021F50AC082E690E00E94060284E690E010
:1004B0000E94060281E409C082E690E00E940602E2
:1004C00084E690E00E94060282E40E94F60182E641
:1004D00090E00E94060289E690E00E9406028E2DBE
:1004E0000E94F60182E690E006C082E690E00E945B
:1004F000060281E790E00E9406020F90CF91DF9103
:100500001F91FF90EF900895089520919C0030E096
:100510002150304080E090E006C046565F4FFA011F
:100520004481940F8F5F482F50E042175307ACF37C
:1005300080E026563F4FF9012481921709F481E0AB
:1005400008950895809391000895809191000895F1
:1005500080938E00089580918E008230F9F0833070
:1005600030F4882351F0813009F06BC010C0833023
:10057000E1F1843009F065C04DC081E00E94B50012
:1005800080919C00882309F45CC082E040C08AE925
:1005900090E00E94C00010928E00089580919E000D
:1005A00080939000882371F094E6899FC001112404
:1005B000909397008093960010929500109294006B
:1005C00083E025C081E01CC082E890E00E948000AA
:1005D0002091940030919500809196009091970021
:1005E0008217930710F482E00BC0909190008091E5
:1005F0009C00891748F30E948502882321F483E038
:1006000080938F0003C081E08093910084E0809309
:100610008E00089580919800909199000196909392
:1006200099008093980080918F00882319F084E8C6
:1006300090E002C086E890E00E94800081E0809314
:080640008E000895F894FFCF2D
:1006480001000D00436D643A004C656E6774683AAA
:10065800004E6F7420646566696E656420436D643E
:0A0668000D00430041004200640051
:00000001FF
