:100000000C9446000C9420010C94F4000C946500B0
:100010000C9465000C9465000C9465000C946500CC
:100020000C9465000C9465000C94EA000C94650037
:100030000C9465000C9465000C9465000C946500AC
:100040000C94B2000C9465000C9465000C9465004F
:100050000C9465000C9465000C9465000C9465008C
:100060000C9465000C9465000C9465000C9465007C
:100070000C9465000C9465000C9465000C9465006C
:100080000C9465000C9465000C94650011241FBE4F
:10009000CFEFD0E1DEBFCDBF11E0A0E0B1E0EEE5F3
:1000A000F3E000E00BBF02C007900D92AE38B1073D
:1000B000D9F711E0AEE8B1E001C01D92A939B1074E
:1000C000E1F70E9474000C94AD010C9400008FEFD6
:1000D0008ABB87BB82B911BA789413BE83B7876095
:1000E00083BF81E087BF08950E94670082E080930C
:1000F0006A0089BF8091900190919101FC01EB5EB3
:10010000FE4F208123B9FC01E359FE4F2081209549
:1001100028BB0196909391018093900188309105BE
:10012000D1F4109291011092900180918E019091E2
:100130008F01019690938F0180938E018A309105F3
:1001400021F410928F0110928E018FE19EE40197AD
:10015000F1F700C000008FE19EE40197F1F700C0C5
:100160000000C8CF1F920F920FB60F920BB60F92DE
:1001700011242F938F939F93EF93FF9384E682BF75
:10018000809192018F5F809392018530B9F48091C4
:10019000930190919401FC01E050FF4F20812BBB13
:1001A000019690939401809393018430910521F4FA
:1001B000109294011092930110929201FF91EF918D
:1001C0009F918F912F910F900BBE0F900FBE0F90AC
:1001D0001F9018951F920F920FB60F9211240F9037
:1001E0000FBE0F901F9018951F920F920FB60F928F
:1001F00011248F939F938FE79EE30197F1F700C03F
:10020000000080919501909196010196909396013E
:10021000809395018A30910521F4109296011092F5
:100220009501819BFECF8FE79EE30197F1F700C018
:1002300000009F918F910F900FBE0F901F90189507
:100240001F920F920FB60F9211248F939F938FE7F7
:100250009EE30197F1F700C0000080919701909113
:1002600098010A96909398018093970183BD853FEA
:10027000910524F01092980110929701809BFECF77
:100280008FE79EE30197F1F700C000009F918F91E7
:100290000F900FBE0F901F9018951F93162F9C0163
:1002A000B901882777FD8095982F20E034E244EF4C
:1002B00050E00E946C01E12FF0E0E770F070EE0F6B
:1002C000FF1FE358FE4F2081318140E050E00E9443
:1002D0008B01822F1F910895629FD001739FF001BF
:1002E000829FE00DF11D649FE00DF11D929FF00DC6
:1002F000839FF00D749FF00D659FF00D9927729FFD
:10030000B00DE11DF91F639FB00DE11DF91FBD0187
:10031000CF0111240895A1E21A2EAA1BBB1BFD01D7
:100320000DC0AA1FBB1FEE1FFF1FA217B307E407D4
:10033000F50720F0A21BB30BE40BF50B661F771F2C
:10034000881F991F1A9469F760957095809590950C
:0E0350009B01AC01BD01CF010895F894FFCFD1
:10035E00020820803F065B4F667D077F6F777C58D3
:10036E005E79710000FEFDFBF7EFDFBF7F0705052D
:10037E00050505050002060202020207000701013B
:10038E00070404070007010107010107000A0A0A12
:10039E000F0202020007040407010107000404040F
:1003AE000705050700070505010101010007050501
:1003BE000705050700070505070101070040404036
:1003CE004040404040F0F0F0F0F0F0F0F00000015E
:0E03DE00000800200040008000000100040024
:00000001FF
