:100000000C9446000C9446010C941A010C94650063
:100010000C9465000C9465000C9465000C946500CC
:100020000C9465000C9465000C9410010C94650010
:100030000C9465000C9465000C9465000C946500AC
:100040000C94D8000C9465000C9465000C94650029
:100050000C9465000C9465000C9465000C9465008C
:100060000C9465000C9465000C9465000C9465007C
:100070000C9465000C9465000C9465000C9465006C
:100080000C9465000C9465000C94650011241FBE4F
:10009000CFEFD0E1DEBFCDBF11E0A0E0B1E0E4EBF7
:1000A000F3E000E00BBF02C007900D92AE37B1073E
:1000B000D9F711E0AEE7B1E001C01D92A938B10750
:1000C000E1F70E94AD000C94D8010C9400008FEF72
:1000D0008ABB87BB82B911BA789413BE83B7876095
:1000E00083BF91E097BF82E080936A0099BF89BF88
:1000F00008950895CF93DF93A5E1B1E0E62FF0E0F6
:1001000093E0EE0FFF1F9A95E1F7E35EFE4FC82FD5
:10011000D0E083E0CC0FDD1F8A95E1F7C35EDE4FB0
:100120008D9183B98191809588BB87E893E1019790
:10013000F1F700C0000089918295807F809588BB8F
:1001400087E893E10197F1F700C0000091E0AE313C
:10015000B90731F7DF91CF9108950E946700809130
:10016000800190918101019690938101809380019B
:100170008B309105B0F080917E018F5F80937E017E
:1001800010928101109280018A3059F410927E0100
:1001900080917F018F5F80937F018A3011F41092EC
:1001A0007F0180917F0160917E010E947A00D7CF0C
:1001B0001F920F920FB60F920BB60F9211242F932E
:1001C0008F939F93EF93FF9384E682BF8091820188
:1001D0008F5F809382018530B9F480918301909183
:1001E0008401FC01E050FF4F20812BBB01969093CE
:1001F0008401809383018430910521F4109284015D
:100200001092830110928201FF91EF919F918F9143
:100210002F910F900BBE0F900FBE0F901F9018954F
:100220001F920F920FB60F9211240F900FBE0F90D6
:100230001F9018951F920F920FB60F9211248F9353
:100240009F938FE79EE30197F1F700C00000809134
:100250008501909186010196909386018093850196
:100260008A30910521F41092860110928501819BBC
:10027000FECF8FE79EE30197F1F700C000009F914A
:100280008F910F900FBE0F901F9018951F920F9295
:100290000FB60F9211248F939F938FE79EE30197E0
:1002A000F1F700C0000080918701909188010A96C3
:1002B000909388018093870183BD853F910524F049
:1002C000109288011092870180917E018F5F809348
:1002D0007E01809BFECF8FE79EE30197F1F700C080
:1002E00000009F918F910F900FBE0F901F90189557
:1002F0001F93162F9C01B901882777FD8095982FB1
:1003000020E034E244EF50E00E949701E12FF0E05A
:10031000E770F070EE0FFF1FE359FE4F208131812F
:1003200040E050E00E94B601822F1F910895629F25
:10033000D001739FF001829FE00DF11D649FE00DDD
:10034000F11D929FF00D839FF00D749FF00D659F3E
:10035000F00D9927729FB00DE11DF91F639FB00D3D
:10036000E11DF91FBD01CF0111240895A1E21A2E4C
:10037000AA1BBB1BFD010DC0AA1FBB1FEE1FFF1F49
:10038000A217B307E407F50720F0A21BB30BE40B99
:10039000F50B661F771F881F991F1A9469F76095E0
:1003A0007095809590959B01AC01BD01CF0108959A
:0403B000F894FFCFEF
:1003B400020820803F065B4F667D077F6F777C587D
:1003C4005E79710000FEFDFBF7EFDFBF7F070505D7
:1003D40005050507000206020202020700070101E3
:1003E400070404070007010107010107000A0A0ABC
:1003F4000F020202000704040701010700040404B9
:1004040007050507000705050101010100070505AA
:10041400070505070007050507010107000000019E
:0E0424000008002000400080000001000400DD
:00000001FF
