:100000000C9446000C94E4000C9418020C946500C7
:100010000C9465000C9465000C9465000C946500CC
:100020000C9465000C9465000C9485030C94650099
:100030000C9465000C9465000C9465000C946500AC
:100040000C9460030C9465000C9495030C9465006B
:100050000C9465000C9465000C9465000C9465008C
:100060000C9465000C9465000C9465000C9465007C
:100070000C9465000C9465000C9465000C9465006C
:100080000C9465000C9465000C94650011241FBE4F
:10009000CFEFD0E1DEBFCDBF11E0A0E0B1E0E4EBF7
:1000A000F7E100E00BBF02C007900D92A638B10740
:1000B000D9F711E0A6E8B1E001C01D92A539B1075A
:1000C000E1F70E9467000C94D80B0C940000DF93BA
:1000D000CF93CDB7DEB72B970FB6F894DEBF0FBE28
:1000E000CDBF1A86198618861F821E821D821C8229
:1000F0001B821A8219820E94CD040E94F7040E947A
:10010000320501C0000089859A8501969A87898702
:1001100089859A8520E137E2B9010E946B0B00972F
:10012000E9F48B819C81009761F08BE390E02BE3F5
:1001300030E0F90120812160FC0120831C821B82B8
:100140000DC08BE390E02BE330E0F90120812E7F9E
:10015000FC01208381E090E09C838B8380918A0165
:1001600090918B01009771F28BE390E02BE330E0EC
:10017000F90120812D7FFC0120838BE390E02BE3AC
:1001800030E0F90120812B7FFC0120838BE390E09C
:100190002BE330E0F9012081277FFC0120838BE3F2
:1001A00090E02BE330E0F90120812F7EFC012083D9
:1001B00010928B0110928A01A6CFDF93CF93CDB717
:1001C000DEB7CF91DF9108951F920F920FB60F9275
:1001D00000905B000F9211241F932F933F934F9336
:1001E0005F936F937F938F939F93AF93BF93EF939F
:1001F000FF93DF93CF93CDB7DEB76C97DEBFCDBF54
:1002000080E090E0A0E8B1E4898F9A8FAB8FBC8F3B
:10021000698D7A8D8B8D9C8D20E030E04AE755E426
:100220000E94D407DC01CB018D8B9E8BAF8BB88FE6
:1002300010E06D897E898F89988D20E030E040E85C
:100240005FE30E942C0988230CF411E0112329F0AC
:1002500081E090E09C8B8B8B43C010E06D897E89A0
:100260008F89988D20E03FEF4FE757E40E94CC083C
:1002700018160CF411E0112349F1698D7A8D8B8DDC
:100280009C8D20E030E040E251E40E94D407DC0184
:10029000CB01BC01CD010E94FA05DC01CB019C8B96
:1002A0008B8B0FC080E991E09A8B898B89899A8921
:1002B0000197F1F79A8B898B8B899C8901979C8B8D
:1002C0008B8B8B899C89009769F714C06D897E8917
:1002D0008F89988D0E94FA05DC01CB019C8B8B8B5A
:1002E0008B899C89988B8F878F8598890197F1F7E7
:1002F000988B8F8780E390E0FC018081882F90E0CD
:10030000817090700097B1F380E090E0A0E8B1E4D4
:100310008B879C87AD87BE876B857C858D859E8509
:1003200020E030E04AE755E40E94D407DC01CB012D
:100330008F839887A987BA8710E06F817885898530
:100340009A8520E030E040E85FE30E942C09882392
:100350000CF411E0112329F081E090E09E838D835D
:1003600043C010E06F81788589859A8520E03FEF52
:100370004FE757E40E94CC0818160CF411E0112343
:1003800049F16B857C858D859E8520E030E040E2DB
:1003900051E40E94D407DC01CB01BC01CD010E94D5
:1003A000FA05DC01CB019E838D830FC080E991E0CB
:1003B0009C838B838B819C810197F1F79C838B833A
:1003C0008D819E8101979E838D838D819E81009773
:1003D00069F714C06F81788589859A850E94FA052E
:1003E000DC01CB019E838D838D819E819A838983DD
:1003F00089819A810197F1F79A8389836C96DEBF90
:10040000CDBFCF91DF91FF91EF91BF91AF919F91C0
:100410008F917F916F915F914F913F912F911F919C
:100420000F9000925B000F900FBE0F901F901895D9
:100430001F920F920FB60F9200905B000F92112443
:100440001F932F933F934F935F936F937F938F935C
:100450009F93AF93BF93EF93FF93DF93CF93CDB76A
:10046000DEB76C97DEBFCDBF80E090E0A0E8B1E4DE
:10047000898F9A8FAB8FBC8F698D7A8D8B8D9C8D78
:1004800020E030E04AE755E40E94D407DC01CB01CC
:100490008D8B9E8BAF8BB88F10E06D897E898F8995
:1004A000988D20E030E040E85FE30E942C0988232B
:1004B0000CF411E0112329F081E090E09C8B8B8BF0
:1004C00043C010E06D897E898F89988D20E03FEFD1
:1004D0004FE757E40E94CC0818160CF411E01123E2
:1004E00049F1698D7A8D8B8D9C8D20E030E040E262
:1004F00051E40E94D407DC01CB01BC01CD010E9474
:10050000FA05DC01CB019C8B8B8B0FC080E991E05D
:100510009A8B898B89899A890197F1F79A8B898BB4
:100520008B899C8901979C8B8B8B8B899C890097ED
:1005300069F714C06D897E898F89988D0E94FA05AC
:10054000DC01CB019C8B8B8B8B899C89988B8F8753
:100550008F8598890197F1F7988B8F87809191010A
:1005600090919201019690939201809391018091D4
:100570009101909192018A30910521F4109292019B
:100580001092910180E390E0FC018081882F90E03F
:10059000827090700097B1F380E090E0A0E8B1E441
:1005A0008B879C87AD87BE876B857C858D859E8577
:1005B00020E030E04AE755E40E94D407DC01CB019B
:1005C0008F839887A987BA8710E06F81788589859E
:1005D0009A8520E030E040E85FE30E942C09882300
:1005E0000CF411E0112329F081E090E09E838D83CB
:1005F00043C010E06F81788589859A8520E03FEFC0
:100600004FE757E40E94CC0818160CF411E01123B0
:1006100049F16B857C858D859E8520E030E040E248
:1006200051E40E94D407DC01CB01BC01CD010E9442
:10063000FA05DC01CB019E838D830FC080E991E038
:100640009C838B838B819C810197F1F79C838B83A7
:100650008D819E8101979E838D838D819E810097E0
:1006600069F714C06F81788589859A850E94FA059B
:10067000DC01CB019E838D838D819E819A8389834A
:1006800089819A810197F1F79A8389836C96DEBFFD
:10069000CDBFCF91DF91FF91EF91BF91AF919F912E
:1006A0008F917F916F915F914F913F912F911F910A
:1006B0000F9000925B000F900FBE0F901F90189547
:1006C0001F920F920FB60F9200905B000F921124B1
:1006D0002F938F939F93EF93FF93DF93CF93CDB798
:1006E000DEB782E590E02AE0FC012083CF91DF9124
:1006F000FF91EF919F918F912F910F9000925B004E
:100700000F900FBE0F901F9018951F920F920FB66B
:100710000F921124DF93CF93CDB7DEB7CF91DF9146
:100720000F900FBE0F901F9018951F920F920FB64B
:100730000F9200905B000F9211241F932F933F9311
:100740004F935F936F937F938F939F93AF93BF93D9
:10075000EF93FF93DF93CF93CDB7DEB72F97DEBF35
:10076000CDBF8BE290E0FC01808188230CF0C0C0FB
:100770008CE290E0FC0180818F878BE390E02BE39B
:1007800030E0F90120812260FC0120838F858B34C9
:1007900049F48BE390E02BE330E0F9012081246001
:1007A000FC0120838BE290E0FC018081882F90E0A7
:1007B00080719070009749F08BE390E02BE330E07C
:1007C000F90120812860FC0120838BE290E0FC018C
:1007D0008081882F90E088709070009749F08BE3BB
:1007E00090E02BE330E0F90120812061FC012083BF
:1007F00080E090E0A8ECB2E48B879C87AD87BE8751
:100800006B857C858D859E8520E030E04AE755E448
:100810000E94D407DC01CB018F839887A987BA8710
:1008200010E06F81788589859A8520E030E040E886
:100830005FE30E942C0988230CF411E0112329F0B6
:1008400081E090E09E838D8343C010E06F817885C6
:1008500089859A8520E03FEF4FE757E40E94CC0856
:1008600018160CF411E0112349F16B857C858D85F8
:100870009E8520E030E040E251E40E94D407DC0194
:10088000CB01BC01CD010E94FA05DC01CB019E83A6
:100890008D830FC080E991E09C838B838B819C8149
:1008A0000197F1F79C838B838D819E8101979E83B5
:1008B0008D838D819E81009769F714C06F81788543
:1008C00089859A850E94FA05DC01CB019E838D8380
:1008D0008D819E819A83898389819A810197F1F71D
:1008E0009A83898381E090E090938B0180938A01C1
:1008F0002F96DEBFCDBFCF91DF91FF91EF91BF91DA
:10090000AF919F918F917F916F915F914F913F91A7
:100910002F911F910F9000925B000F900FBE0F90D0
:100920001F901895DF93CF9300D000D00F92CDB7D2
:10093000DEB79C838B836D838D81877089832B8148
:100940003C81C901AA2797FDA095BA2F20E034E287
:1009500044EF50E0BC01CD010E944C0BDC01CB0107
:100960002981222F30E0220F331F23593E4FF901F6
:1009700020813181990140E050E0BC01CD010E940D
:100980007F0BDA01C9018A838A810F900F900F9043
:100990000F900F90CF91DF910895DF93CF93CDB754
:1009A000DEB78AE390E02FEFFC01208387E390E03D
:1009B0002FEFFC01208382E290E022E0FC01208303
:1009C00081E390E0FC01108278948AE690E022E0D6
:1009D000FC01208389E590E021E0FC01208389E58A
:1009E00090E022E0FC012083CF91DF910895DF9316
:1009F000CF93CDB7DEB783E590E0FC01108283E5AD
:100A000090E023E530E0F90120812760FC0120839C
:100A100087E590E021E0FC012083CF91DF910895EC
:100A2000DF93CF93CDB7DEB785E490E020E4FC01FF
:100A3000208385E490E025E430E0F9012081206204
:100A4000FC01208385E490E025E430E0F901208179
:100A50002360FC01208383E490E0FC011082CF91AD
:100A6000DF910895DF93CF9300D0CDB7DEB787E64F
:100A700090E09A83898380E990E0FC01108289E20A
:100A800090E027E6FC0120838AE290E028EDFC015B
:100A9000208385E990E026E0FC0120830F900F90F1
:100AA000CF91DF910895DF93CF9300D00F92CDB710
:100AB000DEB78B831A8219820DC089819A810196D3
:100AC0009A83898389819A818536910518F081E01E
:100AD00090E011C08BE290E0FC018081882F90E0D3
:100AE00080729070009749F38CE290E02B81FC01BA
:100AF000208380E090E00F900F900F90CF91DF91D6
:100B00000895DF93CF9300D000D0CDB7DEB79C839C
:100B10008B831A82198212C089819A8101969A83E5
:100B2000898389819A818536910540F08B819C81EA
:100B30002FEFFC01208381E090E010C08BE290E079
:100B4000FC018081882344F78CE290E0FC01208145
:100B50008B819C81FC01208380E090E00F900F90BE
:100B60000F900F90CF91DF910895DF93CF9300D036
:100B700000D0CDB7DEB79C838B831A8219820FC059
:100B80002B813C8189819A81820F931FFC01808196
:100B90000E94530589819A8101969A8389832B81CA
:100BA0003C8189819A81820F931FFC0180818D3065
:100BB00051F02B813C8189819A81820F931FFC0126
:100BC00080818823E9F680E090E00F900F900F90ED
:100BD0000F90CF91DF910895DF93CF9300D0CDB7E1
:100BE000DEB79A83898380E090E00F900F90CF91D9
:100BF000DF910895EF92FF920F931F937B018C0179
:100C000020E030E040E05FE40E94FC0888238CF0A4
:100C1000C801B70120E030E040E05FE40E947607C1
:100C20000E945C099B01AC0120503040404050487C
:100C300006C0C801B7010E945C099B01AC01B90163
:100C4000CA011F910F91FF90EF900895A0E0B0E0CE
:100C5000ECE2F6E00C94A30BFC012B01EA0180818D
:100C6000823008F43DC1DB019C91923008F437C119
:100C7000843069F4943009F033C1918111968C91DC
:100C80001197981709F42CC1EDE7F1E029C19430D0
:100C900009F425C19230A9F4823009F021C19F01E5
:100CA00088E0D9010D909D01DA010D92AD018150CE
:100CB000C1F7D20111968C91119791818923898373
:100CC0000CC1823009F40BC182819381DB01129641
:100CD0004D915C911397E480F580068117811496FD
:100CE000AD90BD90CD90DC9017979C01241B350BE7
:100CF000B90137FF04C066277727621B730B603288
:100D000071050CF062C0121613066CF53501460130
:100D1000062E04C096948794779467940A94D2F729
:100D200021E030E040E050E004C0220F331F441FB8
:100D3000551F6A95D2F721503040404050402A213B
:100D40003B214C215D21211531054105510521F043
:100D500021E030E040E050E059016A01A628B728C0
:100D6000C828D9283DC021153105D1F1860F971F1C
:100D700037014801062E04C09694879477946794AF
:100D80000A94D2F721E030E040E050E004C0220FA6
:100D9000331F441F551F6A95D2F721503040404001
:100DA00050402E213F21402351232115310541057B
:100DB000510521F021E030E040E050E079018A0166
:100DC000E628F728082919290BC0481759072CF0DD
:100DD000CA01EE24FF24870103C0AA24BB246501B5
:100DE0002181F2013181231709F44AC0222349F0FD
:100DF000A60195012E193F09400B510B79018A017B
:100E000004C0EA18FB080C091D0917FD0CC0198263
:100E10009B838A83EC82FD820E831F838C819D815C
:100E2000AE81BF811AC021E029839B838A838827F2
:100E30009927DC018E199F09A00BB10B8C839D8330
:100E4000AE83BF83EBCF880F991FAA1FBB1F2A81D8
:100E50003B81215030403B832A839C01AD012150CE
:100E60003040404050402F3F6FEF36076FEF46074E
:100E70006FE3560740F38C839D83AE83BF830BC023
:100E800029839B838A83EA0CFB1C0C1D1D1DEC82AD
:100E9000FD820E831F8383E088832C813D814E81F8
:100EA0005F8157FF1AC0C901AA2797FDA095BA2FE5
:100EB00081709070A070B0705695479537952795C2
:100EC000822B932BA42BB52B8C839D83AE83BF8366
:100ED0008A819B8101969B838A83FE0101C0F20176
:100EE000CF01CDB7DEB7E0E10C94BF0BA0E2B0E0DC
:100EF000ECE7F7E00C94AD0B69837A838B839C83DA
:100F00002D833E834F835887E9E0EE2EF12CEC0EC3
:100F1000FD1ECE010196B7010E947E0A8E010F5E72
:100F20001F4FCE010596B8010E947E0A8A8991E082
:100F300089278A8BC701B801AE01475E5F4F0E94C7
:100F400026060E94AF09A096E6E00C94C90BA0E229
:100F5000B0E0EDEAF7E00C94AD0B69837A838B8304
:100F60009C832D833E834F835887F9E0EF2EF12C2D
:100F7000EC0EFD1ECE010196B7010E947E0A8E0185
:100F80000F5E1F4FCE010596B8010E947E0AC70171
:100F9000B801AE01475E5F4F0E9426060E94AF096E
:100FA000A096E6E00C94C90BA0E2B0E0EAEDF7E011
:100FB0000C94A10B69837A838B839C832D833E835E
:100FC0004F835887CE010196BE01675F7F4F0E9415
:100FD0007E0ACE010596BE016F5E7F4F0E947E0A9B
:100FE0009985923088F089898230C8F0943019F45C
:100FF000823051F404C0843029F4923081F48DE7BA
:1010000091E0C4C0923049F480E02A859A8929137E
:1010100081E08A87CE010996B9C0823049F480E028
:101020002A859A89291381E08A8BCE014196AEC028
:101030006D847E848F849888AD88BE88CF88D88C54
:1010400060E070E080E090E0DC01EE24FF248701A6
:1010500020E030E0A901F301E170F0703097C9F0B1
:101060002A0D3B1D4C1D5D1D8E0D9F1DA01FB11F28
:101070002224332421012A153B054C055D0528F463
:10108000E1E02E2E312C412C512C820D931DA41DFC
:10109000B51DEE0CFF1C001F111FD7FE09C0E1E0BB
:1010A0002E2E312C412C512CE228F328042915290D
:1010B0006F5F7F4F6032710549F0AA0CBB1CCC1CDE
:1010C000DD1C9694879477946794C5CF6B897C894F
:1010D000EB85FC856E0F7F1F6E5F7F4F7C8F6B8F64
:1010E0001A8E7A856A89761711F061E06A8F6B8DA6
:1010F0007C8D10C0FC01E170F070309729F056959E
:101100004795379527955068B695A79597958795F4
:101110006F5F7F4FB7FDEECF0CC0880F991FAA1FDE
:10112000BB1F57FD8160220F331F441F551F6150A5
:1011300070408030E0E09E07E0E0AE07E0E4BE07EC
:1011400060F36B8F7C8F6FE7E62EF12C012D112D54
:10115000E822F9220A231B2360E4E616F1040105C4
:10116000110561F487FD0AC02115310541055105BE
:1011700029F0805C9F4FAF4FBF4F80788D8F9E8F3F
:10118000AF8FB8A383E0898FCE0149960E94AF0943
:10119000A096E2E10C94BD0BA8E1B0E0E2EDF8E02E
:1011A0000C94AD0B69837A838B839C832D833E8360
:1011B0004F83588789E0E82EF12CEC0EFD1ECE01FE
:1011C0000196B7010E947E0A8E010F5E1F4FCE016D
:1011D0000596B8010E947E0A8985823040F089898F
:1011E000823028F0C701B8010E94ED0A01C08FEFDC
:1011F0006896E6E00C94C90BA8E1B0E0E2E0F9E003
:101200000C94AD0B69837A838B839C832D833E83FF
:101210004F83588789E0E82EF12CEC0EFD1ECE019D
:101220000196B7010E947E0A8E010F5E1F4FCE010C
:101230000596B8010E947E0A8985823040F089892E
:10124000823028F0C701B8010E94ED0A01C08FEF7B
:101250006896E6E00C94C90BA8E1B0E0E2E3F9E09F
:101260000C94AD0B69837A838B839C832D833E839F
:101270004F83588789E0E82EF12CEC0EFD1ECE013D
:101280000196B7010E947E0A8E010F5E1F4FCE01AC
:101290000596B8010E947E0A8985823040F08989CE
:1012A000823028F0C701B8010E94ED0A01C081E038
:1012B0006896E6E00C94C90BACE0B0E0E2E6F9E039
:1012C0000C94B10B69837A838B839C83CE01019646
:1012D000BE016B5F7F4F0E947E0A8D81823061F17B
:1012E000823050F1843021F48E81882349F12DC061
:1012F0002F81388537FD20C06E812F3131051CF0DC
:101300006623F1F022C08EE190E0821B930B2985C9
:101310003A854B855C8504C056954795379527954A
:101320008A95D2F76623A9F050954095309521957E
:101330003F4F4F4F5F4F0DC020E030E0A90109C083
:101340002FEF3FEF4FEF5FE704C020E030E040E0D9
:1013500050E8B901CA012C96E2E00C94CD0BCF9273
:10136000DF92EF92FF920F931F93FC01248135814E
:101370004681578101818081823020F440618FEF66
:1013800090E0A2C0843009F49AC0823019F480E061
:1013900090E097C0211531054105510519F480E011
:1013A00090E092C0828193816FEF823896070CF0B3
:1013B00058C062E87FEF681B790B6A31710524F031
:1013C00020E030E0A9012AC069017A01062E04C09C
:1013D000F694E794D794C7940A94D2F781E090E00A
:1013E000A0E0B0E004C0880F991FAA1FBB1F6A9538
:1013F000D2F70197A109B10982239323A423B5232E
:101400000097A105B10521F081E090E0A0E0B0E0F7
:101410009C01AD012C293D294E295F29DA01C90122
:101420008F779070A070B07080349105A105B105E0
:1014300039F427FF09C0205C3F4F4F4F5F4F04C076
:10144000215C3F4F4F4F5F4F80E090E0203060E0E5
:10145000360760E0460760E4560748F181E090E017
:1014600026C0803891055CF581589F4F7FE7C72ED5
:10147000D12CE12CF12CC222D322E422F52260E40B
:10148000C616D104E104F10439F427FF09C0205C39
:101490003F4F4F4F5F4F04C0215C3F4F4F4F5F4F57
:1014A00057FF05C05695479537952795019697E0C4
:1014B00056954795379527959A95D1F705C08FEFA3
:1014C00090E020E030E0A901782F77957727779595
:1014D000142F1F77602F6795662767958695F12FE4
:1014E000F72BE82FE62B622F732F8F2F9E2F1F9144
:1014F0000F91FF90EF90DF90CF900895FC01DB01FA
:10150000208131818281482F4F7750E0982F991F99
:101510009927991F6381862F880F892B90E0661F7A
:101520006627661F11966C931197009769F5211530
:1015300031054105510511F482E02FC082E89FEF8B
:1015400013969C938E93129767E0220F331F441FCC
:10155000551F6A95D1F783E08C930DC0220F331F7E
:10156000441F551F12968D919C91139701971396C6
:101570009C938E931297203080E0380780E04807D4
:1015800080E4580758F322C08F3F910579F4211564
:1015900031054105510519F484E08C93089544FF09
:1015A00003C081E08C9312C01C9210C08F579040F2
:1015B00013969C938E93129783E08C9387E0220F6F
:1015C000331F441F551F8A95D1F7506414962D93ED
:1015D0003D934D935C9317970895EF92FF920F936D
:1015E0001F93FC01DB018081823008F447C09C918D
:1015F000923008F443C0843051F481819430A1F5D5
:1016000011962C91119730E0281B31093FC094307E
:1016100021F0823031F49230B9F111968C9111970A
:101620002BC08181923001F111969C9111978917FD
:10163000D9F44281538112962D913C91139724172E
:10164000350794F042175307BCF0E480F58006811B
:10165000178114962D913D914D915C9117972E1500
:101660003F054007510718F4882341F00AC0E216ED
:10167000F3060407150740F4882319F021E030E051
:1016800005C02FEF3FEF02C020E030E0C9011F91FD
:101690000F91FF90EF900895629FD001739FF0012A
:1016A000829FE00DF11D649FE00DF11D929FF00DF2
:1016B000839FF00D749FF00D659FF00D9927729F29
:1016C000B00DE11DF91F639FB00DE11DF91FBD01B4
:1016D000CF0111240895AA1BBB1B51E107C0AA1F0B
:1016E000BB1FA617B70710F0A61BB70B881F991FC3
:1016F0005A95A9F780959095BC01CD010895A1E276
:101700001A2EAA1BBB1BFD010DC0AA1FBB1FEE1F7B
:10171000FF1FA217B307E407F50720F0A21BB30BC6
:10172000E40BF50B661F771F881F991F1A9469F742
:1017300060957095809590959B01AC01BD01CF019E
:1017400008952F923F924F925F926F927F928F9265
:101750009F92AF92BF92CF92DF92EF92FF920F9340
:101760001F93CF93DF93CDB7DEB7CA1BDB0B0FB64A
:10177000F894DEBF0FBECDBF09942A883988488807
:101780005F846E847D848C849B84AA84B984C8849D
:10179000DF80EE80FD800C811B81AA81B981CE0F94
:1017A000D11D0FB6F894DEBF0FBECDBFED01089579
:0417B000F894FFCFDB
:1017B400020820803F065B4F667D077F6F777C5869
:1017C4005E79710000FEFDFBF7EFDFBF7F070505C3
:1017D40005050507000206020202020700070101CF
:1017E400070404070007010107010107000A0A0AA8
:1017F4000F020202000704040701010700040404A5
:101804000705050700070505010101010007050596
:10181400070505070007050507010107000000018A
:1018240000080020004000800000010004000000C7
:06183400000000000000AE
:00000001FF
